:030000000206C134
:0C06C100787FE4F6D8FD7581350207084B
:1004C5004441590053554E004D4F4E00545545007B
:1004D500574544005448550046524900534154007D
:1004E5002000536574206E616D202020202020207F
:1004F5000020202020202000536574207468616E40
:10050500672020202020202000536574206E67611D
:10051500792020202020202020200053657420747D
:100525006875202020202000202020202020202049
:100535002020202020202020005365742067696F2B
:10054500202020202020202000536574207068750D
:100555007420202020202020200053657420676906
:0B0565006179202020202020202000B1
:100A3D00021E000002080000021A0000022400003D
:100A4D000220000002220000021800000226000011
:040A5D00021C000077
:100B1600E4FDFCC3ED9FEC9E50070DBD00010C806B
:010B2600F2DC
:010B270022AB
:100AA700E4FDFCC3ED9FEC9E5015E4FBFA0BBB0085
:0F0AB700010AEB647D4A70F50DBD00010C80E46F
:010AC600220D
:090B2800D2B0D2B1C2B1C2B022B8
:090B3100D2B0C2B1D2B1D2B0229F
:100AC700E4FEEEC3940874809480500FEF3392B124
:0F0AD700D2B0C2B0EF25E0FF0E80E7D2B0C2B0C0
:010AE60022ED
:100A6200E4FFFEEEC39408748094805016D2B0A2C4
:100A7200B1E4FC33FDEF25E0FFAB05ED4207C2B068
:030A82000E80E003
:010A8500224E
:050A14007E00120A86BD
:100A1900AB07EB54F0FFE4C4F854F0C868FEEFC428
:100A2900540F48FF7C007D0A120428EB540F2FFF56
:040A3900EC3EFE226F
:10096500AB07AA067C007D0A12043AEFC4F8540FBF
:10097500C868F582EEC454F048F583AE02AF037C37
:0F098500007D0A12043AED2582FFEC3583FE2235
:100AE700AB07AA06120B287FD0120AC7AF03120A58
:090AF700C7AF05120AC7020B315A
:040A8600AD07AC0606
:100A8A00120B287FD0120AC7AF05120AC7120B2809
:0D0A9A007FD1120AC7120A627E00020B31E2
:100570008E288F298C2A8D2BAF03AE02120965AC11
:1005800006AD07E4FFFE120AE7AF2BAE2A1209659B
:10059000AC06AD077F017E00120AE77E00E5295414
:1005A0003FFF120965AC06AD077F027E00120AE725
:1005B000AF2FAE2E120965AC06AD077F037E001289
:1005C0000AE7AF31AE30120965AC06AD077F047E95
:1005D00000120AE7AF33AE32120965AC06AD077FF1
:1005E000057E00120AE7AE34AF357C007D6412044C
:1005F0008FAC06AD077F107E00120AE7AE34AF3530
:100600007C007D6412048FAE04AF05120965AC0650
:09061000AD077F067E00020AE737
:10082F00E4FFFE120A867E00EF547FFF120A198E34
:10083F000A8F0B7F01120A148E0C8F0D7F027E0020
:10084F00120A867E00EF543FFF120A198E0E8F0F89
:10085F007F03120A148E108F117F04120A148E1246
:10086F008F137F05120A148E148F157F107E0012BE
:10087F000A867C007D641204288F828E837F061285
:0C088F000A14EF2582F517EE3583F516EC
:01089B00223A
:10089C00AB07AA06EB139280EAC313EB13139281F6
:1008AC00EB7802CEC313CE13D8F9139282AE02EBBF
:1008BC007803CEC313CE13D8F9139283EAC4F85439
:1008CC00F0C8EBC4540F48139284AE02EB7805CEFB
:1008DC00C313CE13D8F9139285AE02EB7806CEC3B0
:1008EC0013CE13D8F9139286AE02EB7807CEC3134E
:0808FC00CE13D8F913928722F4
:040B00007FC07E0034
:100B0400C2A0C2A1D2A212089CC2A27F0A7E000285
:020B14000AA72E
:100935002430FF120951AE28AF297C007D0A12042C
:0C0945008F7C007D0A12048FED2430FF2F
:10095100D2A0C2A1D2A27E0012089CC2A27F0A7EAE
:0409610000020AA7DF
:1009EA007F037E00120B047F027E00120B047F3805
:1009FA007E00120B047F067E00120B047F0C7E0021
:0A0A0A00120B047F017E00020B04B2
:060994007BFF7A0479E507
:10099A008B288A29892AAB28AA29A92A12040F6036
:1009AA0013052AE52A7002052914F912040FFF1209
:0509BA00095180E2225A
:070B3A007F017E00020B04A5
:100326007F3A1209517F847E00120B04AF0DAE0C8A
:100336008E288F29D3E5299409E528648094805076
:1003460004EF020408D3E5299409E5286480948023
:10035600402DE5299464E528648094805021AE28D8
:10036600AF297C007D0A12048FEF2430FF12095159
:10037600AE28AF297C007D0A12048FED020408D353
:10038600E5299463E528648094804029E52994E86A
:10039600E52864809483501DAE28AF297C007D64D7
:1003A60012048FEF120935AE28AF297C007D0A12A0
:1003B600048FED804DD3E52994E7E5286480948386
:1003C6004046E5299410E528648094A7503AAE2863
:1003D600AF297C037DE812048FEF2430FF12095108
:1003E600AE28AF297C007D6412048F7C007D0A1242
:1003F600048FED120935AE28AF297C007D0A120460
:090406008FED2430FF1209512290
:10061900EE60030206C0EFB4080040030206C09072
:10062900062FF828287302064702065602066502B5
:1006390006740206830206920206A10206B07F8CA6
:100649007E00120B047BFF7A0479C580677F8C7E5C
:1006590000120B047BFF7A0479C980587F8C7E00D5
:10066900120B047BFF7A0479CD80497F8C7E0012BE
:100679000B047BFF7A0479D1803A7F8C7E00120BC0
:10068900047BFF7A0479D5802B7F8C7E00120B04C2
:100699007BFF7A0479D9801C7F8C7E00120B047B46
:1006A900FF7A0479DD800D7F8C7E00120B047BFFBD
:0806B9007A0479E112099A228A
:10074D007F807E00120B04AF0FAE0E12033612091E
:10075D00941203261209947F3A1209517F887E0064
:10076D00120B04AF0BAE0A120336120994AF11AE81
:10077D0010120619120B00AF13AE12120336120926
:10078D00947F2F1209517FC47E00120B04AF15AE5A
:10079D00141203361209947F2F1209517FC87E005F
:1007AD00120B04AF17AE161203367FC87E00020A75
:0107BD00A794
:1007BE007F807E00120B04AF0FAE0E1203361209AD
:1007CE00941203261209947F3A1209517F887E00F3
:1007DE00120B04AF0BAE0A120336120994AF11AE10
:1007EE0010120619120B00AF13AE121203361209B5
:1007FE00947F2F1209517FC47E00120B04AF15AEE9
:10080E00141203361209947F2F1209517FC87E00ED
:10081E00120B04AF17AE161203367FC87E00020A03
:01082E00A722
:1000030020B40B30B4FD051DE51D7002051CE51D74
:10001300451C70607F80FE120B047BFF7A0479E736
:1000230012099A120B00AF1FAE1E1203367BFF7A22
:100033000479F612099A20B51A30B5FD051FE51F9C
:100043007002051ED39433E51E94084006751E07FF
:10005300751FD020B6AA30B6FDE51F151F70021517
:100063001EC3E51F94D0E51E94075094751E0875B2
:100073001F33808CE51D6401451C70627F80FE1276
:100083000B047BFF7A0479FD12099A120B00AF0966
:10009300AE081203367BFF7A0479F612099A20B56B
:1000A3001930B5FD0509E50970020508D3940CE57F
:1000B3000894004005E4F508F50930B6030200038F
:1000C30030B6FDE509150970021508C3E50894006B
:1000D300400302000375080075090C020003E51DC7
:1000E3006402451C70627F80FE120B047BFF7A055D
:1000F300790E12099A120B00AF1BAE1A1203367B4C
:10010300FF7A0479F612099A20B51930B5FD051B5B
:10011300E51B7002051AD3941FE51A94004005E409
:10012300F51AF51B30B60302000330B6FDE51B15C7
:100133001B7002151AC3E51A9400400302000375ED
:100143001A00751B1F020003E51D6403451C706242
:100153007F80FE120B047BFF7A05792012099A1225
:100163000B007BFF7A05792D12099AAF25AE241275
:10017300061920B51930B5FD0525E52570020524BE
:10018300D39407E52494004005E4F524F52530B61F
:100193000302000330B6FDE525152570021524C3BF
:1001A300E52494004003020003752400752507022B
:1001B3000003E51D6404451C70627F80FE120B047E
:1001C3007BFF7A05793E12099A120B00AF21AE200C
:1001D3001203367BFF7A0479F612099A20B5193097
:1001E300B5FD0521E52170020520D39418E520947F
:1001F300004005E4F520F52130B60302000330B6D4
:10020300FDE521152170021520C3E520940040036C
:10021300020003751E00751F18020003E51D640527
:10022300451C70627F80FE120B047BFF7A05794EBA
:1002330012099A120B00AF23AE221203367BFF7A08
:100243000479F612099A20B51930B5FD0523E52383
:1002530070020522D3943CE52294004005E4F52284
:10026300F52330B60302000330B6FDE523152370F2
:10027300021522C3E5229400400302000375220005
:1002830075233C020003E51D6406451C70627F80F4
:10029300FE120B047BFF7A05795F12099A120B0099
:1002A300AF19AE181203367BFF7A0479F612099A56
:1002B30020B51930B5FD0519E51970020518D39459
:1002C3003CE51894004005E4F518F51930B603022F
:1002D300000330B6FDE519151970021518C3E518AA
:1002E3009400400302000375180075193C020003D3
:1002F30085242E85252F851A30851B318508328567
:100303000933851E34851F35AB19AA18AD23AC22DA
:10031300AF21AE20120570E4F526F527F51CF51D77
:03032300020B3A90
:1009BF0085161E85171F85140885150985121A853A
:1009CF00131B851024851125850E20850F21850C7D
:0B09DF0022850D23850A18850B1922C4
:100904001209EA20B30B30B3FD0527E52770020571
:1009140026E5274526701212082F1209BF7F647E30
:1009240000120AA71207BE80DA120B3A12000380E3
:01093400D2F0
:1006CD00020904E493A3F8E493A34003F68001F236
:1006DD0008DFF48029E493A3F85407240CC8C3332E
:1006ED00C4540F4420C8834004F456800146F6DFFD
:1006FD00E4800B0102040810204080900A3DE47E46
:10070D00019360BCA3FF543F30E509541FFEE493F1
:10071D00A360010ECF54C025E060A840B8E493A3B8
:10072D00FAE493A3F8E493A3C8C582C8CAC583CAE3
:10073D00F0A3C8C582C8CAC583CADFE9DEE780BE9B
:010A61000094
:10040F00BB010689828A83E0225002E722BBFE02EB
:09041F00E32289828A83E493221E
:10042800EF8DF0A4A8F0CF8CF0A428CE8DF0A42EE8
:02043800FE22A2
:10043A00BC000BBE0029EF8DF084FFADF022E4CCA6
:10044A00F875F008EF2FFFEE33FEEC33FCEE9DEC6F
:10045A00984005FCEE9DFE0FD5F0E9E4CEFD22EDB5
:10046A00F8F5F0EE8420D21CFEADF075F008EF2FFF
:10047A00FFED33FD4007985006D5F0F222C398FDF0
:05048A000FD5F0EA228D
:10048F00C2D5EC30E709B2D5E4C39DFDE49CFCEE88
:10049F0030E715B2D5E4C39FFFE49EFE12043AC3C2
:1004AF00E49DFDE49CFC800312043A30D507C3E4BD
:0604BF009FFFE49EFE22F7
:00000001FF
